:100000000C94AA020C94631A0C943C1A0C94D2021D
:100010000C94D2020C94D2020C940D0A0C94D202CD
:100020000C94D2020C94D2020C94D2020C94D20200
:100030000C94D2020C94D2020C94D2020C94D202F0
:100040000C94F2190C94D2020C94B01A0C948A1AE3
:100050000C94D2020C94D2020C94D2020C94D202D0
:100060000C94FC0F0C94D20200407A10F35A00A0BA
:10007000724E18090010A5D4E80000E87648170071
:1000800000E40B54020000CA9A3B000000E1F505B1
:10009000000080969800000040420F000000A086FB
:1000A00001000000102700000000E803000000002D
:1000B0006400000000000A000000000001000000D1
:1000C00000002C76D888DC674F0823DFC1DFAE59EB
:1000D000E1B1B796E5E3E453C63AE651997696E87E
:1000E000E6C28426EB898C9B62ED407C6FFCEFBC02
:1000F0009C9F40F2BAA56FA5F490055A2AF75C932D
:100100006B6CF9676DC11BFCE0E40D47FEF520E662
:10011000B500D0ED902E0300943577050080841E45
:10012000080000204E0A000000C80C333333330FA0
:10013000986E12831141EF8D2114893BE65516CF3D
:10014000FEE6DB18D1844B381BF77C1D901DA4BB49
:10015000E424203284725E228100C9F124ECA1E5FE
:100160003D2754534D3A494E49540A002154534DAA
:100170003A494E49543A545350204641494C0A009A
:1001800054534D3A494E49543A545350204F4B0A18
:100190000054534D3A465041520A002154534D3AAF
:1001A000465041523A4E4F205245504C590A002178
:1001B00054534D3A465041523A4641494C0A005434
:1001C000534D3A465041523A4F4B0A0054534D3A20
:1001D00049443A5245510A0054534D3A49440A00A1
:1001E0002154534D3A49443A4641494C0A0054532C
:1001F0004D3A49443A4F4B0A0054534D3A55504CEE
:100200000A002154534D3A55504C3A4641494C0A44
:100210000054534D3A55504C3A444757432C4F3DA8
:1002200025642C4E3D25640A0054534D3A55504CDC
:100230003A4F4B0A0054534D3A52454144593A49BA
:10024000443D25642C5041523D25642C4449533D86
:1002500025640A002154534D3A52454144593A55B8
:10026000504C204641494C2C534E500A0054534D9B
:100270003A4641494C3A5044540A0054534D3A4688
:1002800041494C3A434E543D25640A0054534D3A7B
:100290004641494C3A52452D494E49540A004D4376
:1002A0004F3A50494D3A4E4F4445205245473D251F
:1002B000640A00215453463A4D53473A52454C2064
:1002C0004D53472C4E5245500A005453463A4D5315
:1002D000473A42430A005453463A4D53473A414342
:1002E0004B0A00215453463A4D53473A504F4E471C
:1002F00020524543562C494E4143544956450A0025
:100300005453463A4D53473A504F4E472052454377
:10031000562C48503D25640A005453463A4D5347E5
:100320003A50494E4745442C49443D25642C485099
:100330003D25640A00215453463A4D53473A4650EE
:10034000415220494E4143544956450A00545346B0
:100350003A4D53473A46504152204F4B2C49443D69
:1003600025642C443D25640A005453463A4D5347B6
:100370003A41434B205245510A00215453463A4DCD
:1003800053473A505645522C25643D25640A0021B6
:100390005453463A4D53473A4C454E2C2564213D23
:1003A00025640A005453463A4D53473A5245414456
:1003B0002C25642D25642D25642C733D25642C6328
:1003C0003D25642C743D25642C70743D25642C6C93
:1003D0003D25642C73673D25643A25730A00545308
:1003E000463A5349443A4F4B2C49443D25640A0050
:1003F000215453463A5349443A4641494C2C4944C6
:100400003D25640A0025735453463A4D53473A53E9
:10041000454E442C25642D25642D25642D25642C02
:10042000733D25642C633D25642C743D25642C703C
:10043000743D25642C6C3D25642C73673D25642C2C
:1004400066743D25642C73743D25733A25730A0048
:10045000215453463A5254453A4650415220414362
:10046000544956450A00215453463A534E443A548F
:100470004E520A004D434F3A5245473A5245510AAF
:10048000005453463A5755523A4D533D256C750A20
:10049000004D434F3A42474E3A494E4954204F4B44
:1004A0002C5453503D25640A004D434F3A42474E69
:1004B0003A5354500A004D434F3A42474E3A42464F
:1004C000520A004D434F3A42474E3A494E49542052
:1004D0004E4F44452C43503D524E4E4E412D2D2CF7
:1004E0005645523D322E312E310A000000000800E0
:1004F00002010000030407000000000000000021CA
:100500004D434F3A534E443A4E4F4445204E4F547C
:10051000205245470A0000000000250028002B005B
:1005200000000000240027002A000404040404043E
:100530000404020202020202030303030303010292
:100540000408102040800102040810200102040861
:100550001020DE1B11241FBECFEFD8E0DEBFCDBFC1
:1005600013E0A0E0B1E0E2E5F6E402C005900D92F0
:10057000A031B107D9F726E0A0E1B3E001C01D9298
:10058000A030B207E1F712E0CAEAD2E004C0219736
:10059000FE010E940623C93AD107C9F70E94051B34
:1005A0000C9427230C9400000F931F930E94E619CC
:1005B0000091130310911403209115033091160339
:1005C000601B710B820B930B1F910F9108959C017F
:1005D00080911103909112038217930751F090912B
:1005E0001B039F7190931B033093120320931103FD
:1005F00005C080911B03805E80931B03E091110373
:10060000F09112030190F081E02D309709F00995E7
:100610000E94E619609313037093140380931503EB
:10062000909316030895EF92FF920F931F93CF9329
:10063000DF93CDB7DEB7C857D1090FB6F894DEBF48
:100640000FBECDBF8E010F571F4FF801E190F19003
:100650008F010E94E6194AE00E94311286E092E082
:100660000E942F129801A70168E770E0CE01019661
:100670000E943F1DCE0101960E942F128CE094E053
:100680000E94FB17C858DF4F0FB6F894DEBF0FBEAD
:10069000CDBFDF91CF911F910F91FF90EF90089503
:1006A000CF93C82F8FEF8C0F8E3F08F5C0930904AE
:1006B000C0931C0163E082E20E94180B61E081E2BA
:1006C0000E94180B0E94290B6C2F80E090E00E9482
:1006D00087221F92CF938EED93E09F938F930E947A
:1006E00013030F900F900F900F9081E018C01F928E
:1006F000CF9380EF93E09F938F930E9413030F900B
:100700000F900F900F9080E090E0892B21F08EE603
:1007100090E00E9400008FEF8093090480E0CF9169
:1007200008952F923F924F925F926F927F928F9295
:100730009F92AF92BF92CF92DF92EF92FF920F9370
:100740001F93CF93DF93CDB7DEB72C970FB6F894F6
:10075000DEBF0FBECDBFE0911103F0911203028006
:10076000F381E02D309709F0099580911B0384FBFC
:10077000222720F9298784FF5EC386E0D82E90E0E7
:10078000E92E90E0F92E9E012F5F3F4F3C832B8393
:1007900020EA822E26E8922EAA24A394B12C34EBD0
:1007A000432E3BE2532E31E1632E712C21E041E0D8
:1007B00060E070E087E10E94E60A80FD3CC3DA94C5
:1007C000DD2009F438C3E114F10421F081E090E068
:1007D0000E94000021E041E060E070E080E60E94BD
:1007E000E60AC82E30E2381720F482EE0E94360B5B
:1007F000C12C21E04C2D62ED75E081E60E94E60AF5
:1008000060E487E20E94180B8091D505282F269579
:10081000269526952A3108F029E182FD03C077E06C
:10082000720F01C070E28091D60587708D831091A0
:10083000D7050091D3052090D2053090D40582EDE4
:1008400095E02A877C870E9492112A85422F50E0EA
:100850009F938F938091D50582FB882780F91F9203
:100860008F931F922F938091D605829586958770DE
:100870001F928F931F921F931F922D812F93809110
:10088000D8051F928F931F923F921F922F921F9213
:100890000F93A4EAB3E0BF93AF934A875B870E94AC
:1008A00013030FB6F894DEBF0FBECDBF7C854A851B
:1008B0005B85C71679F0E114F10429F08CE690E02D
:1008C0000E9400007C851F927F931F92CF928FE839
:1008D00093E017C02091D505822F83708230E1F01C
:1008E000E114F10421F08DE690E00E9400001F92D7
:1008F00082E08F938091D50583701F928F938AE752
:1009000093E09F938F930E9413030F900F900F908B
:100910000F900F900F904ACF80911C0380688093B6
:100920001C0380910904381254C0822F8695869545
:1009300086958A3108F089E138E0839FC00111244F
:100940002770822B8093D505FA01EE52FA4F178259
:100950008091D60583FF21C089E693E09F938F9312
:100960000E94130381E2E2EDF5E0A1EBB5E0019016
:100970000D928A95E1F78091B505877F806180931C
:10098000B505809109048093B2050093B30581EB0E
:1009900095E00E94340C0F900F909091D60594FD35
:1009A0000BC02D81233081F48091D70521EF280FD2
:1009B000233008F050C0FACEA6EDB2E0BF93AF935B
:1009C0000E9413030F900F9082ED95E00E94490F53
:1009D000EDCEFFEF3F1236C0AAECB2E0BF93AF936B
:1009E0000E9413030F900F902D81233031F58091D9
:1009F0001B0382FF03C0173009F4D8CE183009F466
:100A0000D5CE143109F0D2CE80910A042812CECE70
:100A10000E94E6197370882799270E94201410916C
:100A20000A0425E143E06FEF802F0E943C11612F03
:100A30000E94170A0E943C0BB9CE80910A0428122A
:100A4000B5CEC2CFA3EBB2E0BF93AF930E94130326
:100A50000F900F90ABCE143039F482ED95E00E94E8
:100A6000D50A0E945003A2CE183031F510911B0315
:100A700010FF1DC082ED95E00E94D50A8F3F09F45A
:100A800095CE8F5F8F3F09F491CE90910B0489171B
:100A900008F08CCE11FD8ACE80930B0400930A04DB
:100AA0001F928F931F920F938DE493E02ACF85E3DB
:100AB00093E09F938F93CACF1831D1F482ED95E0E4
:100AC0000E94D50A1F928F931F920F9389E193E0A2
:100AD0009F938F930E94130329E143E06FEF802FD0
:100AE0000E943C1161E00E94170A0E943C0B0DCF4E
:100AF0001931B9F480911B0383FF10C0877F809365
:100B00001B0382ED95E00E94D50A80931D031F927E
:100B10008F9380E093E09F938F933CC0A3EEB2E06D
:100B200093CF2091D305211182C18D3099F480E0BB
:100B300090E0892B21F08BE090E00E94000098E08B
:100B400088E10FB6F894A895809360000FBE90934B
:100B50006000FFCF8B3129F582ED95E00E94D50A28
:100B600091E0811101C090E08091D50390FB80F964
:100B70008093D503E114F10421F08AE090E00E9413
:100B800000008091D50381701F928F93AEE9B2E08F
:100B9000BF93AF930E9413030F900F900F900F908D
:100BA00005CE8630A9F49091D905992329F081E0EA
:100BB0009D3419F080E001C089858093D40341E021
:100BC00050E063E071E084ED93E00E947722EECD87
:100BD000833119F40E94730CE9CD8231F1F40E9443
:100BE000D4026D837E838F83988726E143E06FEF85
:100BF00080E00E943C11FC0184818F71806A8483B3
:100C000083818770806283838D819E81AF81B88567
:100C100087839087A187B287DAC0813001F5A0E091
:100C2000B0E0AB2B09F4C2CD9295969597709530B4
:100C300049F46091D9057091DA058091DB059091B6
:100C4000DC050AC0911105C089ED95E00E94A51C44
:100C500003C060E070E0CB010E940000A7CD8A30A5
:100C600009F4A4CD8C3109F0AFCE8091D90582353D
:100C700009F49CCD8635B1F58EE480937C0066E462
:100C800070E080E090E00E94201480917A008064FF
:100C900080937A0080917A0086FDFCCF20907800C6
:100CA000309079002CE143E06FEF80E00E943C112E
:100CB0008C01FC0184818F718066848383818770BD
:100CC00080618383910140E050E0C301B2010E9442
:100CD000E422D80118963C932E931797C8010E94DE
:100CE000340C64CD863409F052C0F8948FEF86BB83
:100CF0001092850010928400109280001092820061
:100D0000909160002DE088E10FB6F894A89580934B
:100D100060000FBE2093600080916000806480932B
:100D20006000A89585E0809381008091600087FF36
:100D3000FCCF10928100A89580916000886180931B
:100D4000600090936000789420908400309085003B
:100D50002CE143E06FEF80E00E943C118C01FC012C
:100D600084818F71806684838381877080618383AF
:100D7000C101A0E0B0E0BC01CD014BE0660F771FE0
:100D8000881F991F4A95D1F7A5019401A0CF8D34F2
:100D900001F50091FC051091FD050115110511F4F7
:100DA00000E016E02CE143E06FEF80E00E943C1190
:100DB000FC0184818F718066848383818770806168
:100DC00083838B819C81801B910B90878783CF01CC
:100DD00086CF853409F0EACC2CE143E06FEF80E068
:100DE0000E943C116DE871E00E94A00A0E94340C40
:100DF00000E010E06FEFC8010E9487220F5F1F4FD5
:100E00000D39B1E01B07B1F780E090E0892B21F0AC
:100E10008BE090E00E94000098E088E10FB6F89423
:100E2000A895809360000FBE90936000FFCF8A3139
:100E300009F0CACDBBCC2C960FB6F894DEBF0FBE1E
:100E4000CDBFDF91CF911F910F91FF90EF90DF9079
:100E5000CF90BF90AF909F908F907F906F905F905A
:100E60004F903F902F9008950F931F930E94D402AC
:100E700020911C032077203729F000E117E220E0C1
:100E800030E004C000E61AEE20E030E00617170755
:100E90002807390770F48CE892E09F938F930E94A3
:100EA00013030F900F908DE191E01F910F910C941F
:100EB000E7021F910F91089580911C03982F90775E
:100EC000903759F0982F92959F709F5F97709295E9
:100ED000907F8F78892B80931C0380911C038295CF
:100EE00087701F928F938BE792E09F938F930E945E
:100EF000130380911B038B7F8F7E80931B030F90C6
:100F00000F900F900F9080E090E0892B21F087E602
:100F100090E00E9400008DE692E09F938F930E94E4
:100F2000130329980F900F906CE080E20C94180B3B
:100F300080911C038F70863060F084E592E09F936F
:100F40008F930E9413030F900F9088E191E00C940F
:100F5000E702089580910B041F928F9380910A04F9
:100F60001F928F93809109041F928F9385E392E0E3
:100F70009F938F930E94130380911B03846080933F
:100F80001B0380911C03807880931C03E0911E0357
:100F9000F0911F038DB79EB708960FB6F8949EBFC9
:100FA0000FBE8DBF309709F00994089580911D03FD
:100FB0008F3F79F10E94E61960931703709318032D
:100FC0008093190390931A0389E292E09F938F9381
:100FD0000E94130390911D0380910B040F900F90BA
:100FE0009817A1F01F929F931F928F9381E192E037
:100FF0009F938F930E94130380911D0380930B0492
:101000000F900F900F900F900F900F9084E191E050
:1010100025C00E94D402613D77408105910500F111
:1010200080911B03803618F480E191E017C082E0C4
:1010300092E09F938F930E94130380911B03877FFD
:1010400080931B030F900F9080E090E0892B21F09C
:101050008AE690E00E94000088E191E00C94E702AB
:10106000089589EF91E09F938F930E9413030F904F
:101070000F9080E090E0892B21F088E090E00E94C2
:1010800000008FEF80931D0380911B038860809385
:101090001B0328E143E06FEF80E00E943C1161E018
:1010A0000E94170A0C943C0B809109048F3F99F021
:1010B0008EEE91E09F938F930E9413030F900F90F9
:1010C00080E090E0892B21F087E090E00E94000012
:1010D00080E191E020C00E94D402613D774081050B
:1010E0009105D8F080911B03803618F48CE091E0D4
:1010F00012C080EE91E09F938F930E9413030F9094
:101100000F9080E090E0892B21F089E690E00E942A
:10111000000088E091E00C94E702089588ED91E0EA
:101120009F938F930E9413030F900F908091090457
:101130008F3FE1F480E090E0892B21F086E090E0A1
:101140000E9400008CEC91E09F938F930E94130308
:1011500023E043E06FEF80E00E943C1168EE71E015
:101160000E94A00A0F900F900C943C0B08950E94CF
:10117000D402613D77408105910520F480911B03E5
:1011800081FF089580910A048F3FC1F08FEB91E0B9
:101190009F938F930E94130380911B038E7F8093F4
:1011A0001B030F900F9080E090E0892B21F085E0E9
:1011B00090E00E9400008CE091E021C080911B0330
:1011C000803658F48BE991E09F938F930E9413032C
:1011D0000F900F9088E191E012C08FEA91E09F9309
:1011E0008F930E9413030F900F9080E090E0892B63
:1011F00021F088E690E00E94000088E091E00C94E5
:10120000E70281E991E09F938F930E9413030F906F
:101210000F9080E090E0892B21F084E090E00E9424
:10122000000080911B03897F816080931B038FEFF7
:1012300080930B0480930A0427E043E06FEF0E9441
:101240003C1168EE71E00E94A00A0C943C0BCF9315
:10125000219A229ACFB7F89480911003811124C06B
:10126000E4E3F5E08491E8E4F5E09491E82FF0E020
:10127000EE0FFF1FE05EFA4FA591B491EC91E923C8
:1012800021F461E08AE00E94D4138AE00E94731185
:101290008CB580618CBD8CB580648CBD8DE00E9466
:1012A00073118BE00E947311809110038F5F809304
:1012B0001003CFBF29982A9A6EE080E20E94180B93
:1012C00065E070E080E090E00E94201463E083E23B
:1012D0000E94180B6FE584E20E94180B6CE485E213
:1012E0000E94180B67E286E20E94180B63E780E514
:1012F0000E94180B66E08DE30E94180B21E041E08C
:1013000060E070E086E00E94E60AC82F21E041E03C
:1013100060E070E085E00E94E60A8C3409F049C084
:10132000C73209F046C062E082E20E94180B60E01A
:1013300081E20E94180B63E08CE30E94180B8FEF90
:101340008093030120E045E063E071E08BE20E94BE
:10135000E60A20E045E063E071E08AE20E94E60AE6
:1013600020E045E063E071E080E30E94E60A82EE5F
:101370000E94360B81EE0E94360B60E787E20E94E6
:10138000180B80E891E09F938F930E941303809144
:101390001B03806180931B03809109040F900F90C1
:1013A0008F3FC1F00E945003811114C088E091E08A
:1013B00013C08CE691E09F938F930E9413030F90CC
:1013C0000F9080E090E0892B89F387E690E00E94FF
:1013D0000000ECCF88E191E0CF910C94E70282E627
:1013E00091E09F938F930E941303EBE1F3E08081E0
:1013F000877F8F7E808310921703109218031092BC
:10140000190310921A030F900F9043E050E060E030
:1014100070E089E094E00C945F221F920F920FB667
:101420000F9211240F900FBE0F901F901895FC0182
:10143000838187708860838384818F7180628483D5
:101440006783CF0108950E944B1180E991E00E94CB
:10145000151368EC70E080E090E00E9420148BE7A8
:1014600095E00E94C60E81E080937E058EE991E0B2
:101470000E946F22482F50E061E070E08BE795E01A
:101480000E9457188EE991E00E946F22682F8AE52A
:1014900095E00E94170A0E94881281EA91E00E945A
:1014A0006F22682F8BE795E00E94EF0D81EA91E0B3
:1014B0000E946F22682F87EF94E00E94170A0E9413
:1014C000881260E08BE795E00E94CB0D82EA91E004
:1014D0000E946F2261E0811101C060E08BE795E01E
:1014E0000E94BC0D82EA91E00E946F22682F86ED77
:1014F00094E00E94170A0E94881283EA91E00E94F9
:101500006F2261E0811101C060E08BE795E00E94ED
:10151000E00D83EA91E00E946F22682F85EB94E052
:101520000E94170A0C948812FC01838187708860DE
:10153000838384818F71806284836783CF01089560
:101540000F931F93CF93DF93EC016115710561F049
:10155000FB0101900020E9F73197E61BF70BE93119
:10156000F10518F0E9E101C0E0E00E2F10E0C8013C
:1015700023E0880F991F2A95E1F79B819770892BAB
:101580008B838C818F718C83EE2329F0A801CE018F
:1015900007960E941823FE01E00FF11F1782CE016B
:1015A000DF91CF911F910F910895FC012481229525
:1015B00026952770213011F487810895211104C0E8
:1015C00007960E94871C089580E0089591E59CBDD0
:1015D00091E09DBD2A98E3E2F0E03197F1F78EBDEE
:1015E00000000DB407FEFDCF8EB5FB019FEF41500B
:1015F000C8F0222361F09EBD00000DB407FEFDCFB0
:101600008EB56115710599F380833196F0CFDF01B6
:10161000119680818EBD00000DB407FEFDCF8EB502
:10162000FD01E5CF2A9AE3E2F0E03197F1F7089562
:10163000CF93DF931F92CDB7DEB7698320E041E0FF
:10164000BE016F5F7F4F0E94E60A0F90DF91CF913E
:1016500008956FE080E20E94180B60911C016F3FBB
:1016600019F08AE20E94180B299A089520E040E0C0
:1016700060E070E00C94E60AAF92BF92CF92DF92E6
:10168000EF92FF920F931F93CF93DF93EC018A8128
:1016900090911B0390FF0CC08F3F79F080E594E0A0
:1016A0009F938F930E9413030F900F9010E0D0C070
:1016B0008F3F19F000910A0401C00FEF80910904D7
:1016C00088834B8142FD06C046954695469517E0B6
:1016D000140F01C010E280E090E0892B21F080E03F
:1016E00090E00E940000299883E092E00197F1F7D2
:1016F0006EE080E20E94180B8BE891E00197F1F711
:10170000602F8AE20E94180B602F80E30E94180B62
:1017100081EE0E94360B0F3F11F080EA01C080EB92
:10172000412F113208F040E220E0BE010E94E60A9B
:10173000299AE12CF12C8FEF0E94360B182F807321
:1017400021F481E0E81AF108B1F7299860E387E213
:101750000E94180B14FF03C081EE0E94360B0E94FA
:10176000290B15FB112710F981E00F3F09F080E0EC
:10177000182BCE010E949211111103C0E9E9F1E08A
:1017800002C0EDE8F1E060911C036F702B8122FB39
:10179000AA24A0F8322F3695369536952C81B22E94
:1017A000B294B69447E0B422CD802770DE80EA8000
:1017B000A02FB0E0F8807981111103C04EE951E00B
:1017C00002C048EE51E09F938F93FF93EF931F92D7
:1017D0006F931F92AF921F923F931F92BF921F92DF
:1017E000CF921F922F931F92DF921F92EF92BF937F
:1017F000AF931F92FF921F927F935F934F9385E069
:1018000094E09F938F930E9413038DB79EB74E96DB
:101810000FB6F8949EBF0FBE8DBF80910A040813C7
:1018200017C0111110C080E090E0892B21F085E6EF
:1018300090E00E94000080911C0391E0980F9F703F
:10184000807F892B03C080911C03807F80931C03C1
:10185000812FDF91CF911F910F91FF90EF90DF903B
:10186000CF90BF90AF90089520911B0322FD0C9460
:101870003C0B86E694E09F938F930E9413030F9096
:101880000F9080E008952BE043E06FEF80E00E942E
:101890003C1160EA71E00E94A00A0E94340C2CE026
:1018A00043E06FEF80E00E943C1162EE71E00E9425
:1018B000A00A0E94340C67E181E00E94721263E08A
:1018C00082E00E94721263E083E00E94721264E080
:1018D00084E00E94721263E085E00E94721263E06D
:1018E00086E00C947212CF9380E090E0892B21F077
:1018F0008CE090E00E9400002FE043E06FEF80E07A
:101900000E943C1168EE71E00E94A00A8091B4052B
:10191000877080618093B4058091B5058F71806C6C
:101920008093B50581E08093B8051092B90581EBED
:1019300095E00E94340C8FE00E94211361E18FEF4B
:101940000E947212C0910A0426E043E06FEF80E02B
:101950000E943C116C2F0E94170A0E94340C86E0F2
:101960000E942113CF910C94430CCF938091D50307
:1019700081FD2FC00E94730C84E794E09F938F93A6
:101980000E9413030F900F9080E090E0892B21F0CC
:1019900089E090E00E9400008091D50381608093EF
:1019A000D503C4E02AE143E06FEF80E00E943C11E0
:1019B00062E00E94170A0E94340C8BE10E942113FE
:1019C000811102C0C15071F78091D503826080936C
:1019D000D503CF9108950895E0916803809167033E
:1019E000E81730F4F0E0E759FC4F808190E008956B
:1019F0008FEF9FEF08959091680380916703981788
:101A000050F4E92FF0E0E759FC4F208130E09F5F70
:101A10009093680302C02FEF3FEFC90108958091B2
:101A2000670390E020916803821B9109089508954F
:101A300080E090E0089585ED8093BC008091BC002B
:101A400084FDFCCF1092AF03089540914203262FEE
:101A500030E0240F311D21323105DCF42091AF0339
:101A60002430C9F4FC0180E090E0861758F43091EE
:101A700042032191DC01A05EBC4FA30FB11D2C934A
:101A80000196F3CF80914203680F6093420380E098
:101A9000089581E0089582E00895CF92DF92EF9259
:101AA000FF920F931F93CF93DF937C01262F972FE5
:101AB0008A018091B003882391F0C62FD72F6E0141
:101AC000C40ED51ECC15DD0571F06991D701ED91DD
:101AD000FC910190F081E02DC7010995F3CF642FAF
:101AE000822F0E94250DC801DF91CF911F910F9188
:101AF000FF90EF90DF90CF900895CF93DF931F92E8
:101B0000CDB7DEB769832091B0032223D1F02091B5
:101B1000D303203240F021E030E0FC013383228304
:101B200080E090E015C08091B103E82FF0E0EE5422
:101B3000FC4F998190838F5F8093B1038093D3038F
:101B400005C061E0CE0101960E94250D81E090E084
:101B50000F90DF91CF9108950895FC016087268D45
:101B6000378D662311F0326002C03D7FFC01378F54
:101B7000268F64E00C944816FC016783228D338D18
:101B8000662311F03F7B02C03064FC01338F228F4B
:101B900062E00C944816FC016683828D938D9C0153
:101BA0003E7F338F228F662321F03062338F228F66
:101BB00003C09E7D938F828F62E0CF010C94481604
:101BC000FC016583228D338D662311F0306101C0E5
:101BD0003F7EFC01338F228F62E00C944816FC019B
:101BE00064836F7020A131A1207F262B31A320A315
:101BF00065E00C9448160F931F93CF93DF938C01ED
:101C0000EB01DC0113968C918823B9F08EE30E94DE
:101C10000A1389EB91E00E942F1288E20E940A13B6
:101C2000CE01A0E0B0E04AE0BC01CD010E9431123B
:101C300089E20E940A130E940613D8015C96ED9176
:101C4000FC915D97EF70FF271D968D919C911E97DB
:101C50009E01C817D90708F49C01D8011F964D9121
:101C60005C91509770964217530708F49A01A901A6
:101C7000481B590BCA016AE070E00E94D022EB01B8
:101C800086E0CC0FDD1F8A95E1F7CE2BDF2BD80144
:101C90005A968D919C915B978960906C5B969C9312
:101CA0008E935A9762E0C8010E944816F801D58FBA
:101CB000C48F63E0C8010E94481665E0C801DF9147
:101CC000CF911F910F910C944816CF93DF93EC01A5
:101CD00062E070E080E190E00E949B13CE010E94E0
:101CE0005A149BA78AA70E94FE122AA53BA533700F
:101CF0008AE0829FA001839F500D11248D859E85CF
:101D0000840F951F9C878B87DF91CF910895EF9269
:101D1000FF920F931F93CF93DF938C01EB010E94EF
:101D20007318C130D10531F0229731F488E0E82EE4
:101D3000F12C02C0E12CF12CF801F58EE48EDF913C
:101D4000CF911F910F91FF90EF900895CF93DF9364
:101D5000EC018B81882359F08EE30E940A1386ECF4
:101D600091E00E942F128BEC91E00E941513E88104
:101D7000F9810480F581E02D60E0CE0109951B8E8C
:101D80001A8ECE01DF91CF910C94E6161F93CF935C
:101D9000DF93EC018B81882359F08EE30E940A13B4
:101DA0008EEC91E00E942F128BEC91E00E941513B3
:101DB00010926803109267031092B1031092D3033C
:101DC0001092AF0311E01093AE031092890361E00B
:101DD00082E10E94D41361E083E10E94D4138091D8
:101DE000B9008E7F8093B9008091B9008D7F809378
:101DF000B90088E48093B80085E48093BC00109318
:101E0000B00381E18093D2031092B1031092D30307
:101E10000E94FE12811138C08B81882339F08EE335
:101E20000E940A1383ED91E00E94151384E098E567
:101E30009F8B8E8B198E188E83E090E09B8F8A8FFC
:101E4000E881F981028CF38DE02D61E070E0CE0134
:101E5000099580E098E09F8F8E8F81E890E999A3A3
:101E600088A31BA21AA21DA21CA21FA21EA219A611
:101E700018A6CE010E94E61681E090E09B8F8A8F23
:101E800062E0CE010E94481681E0DF91CF911F9160
:101E900008951F93CF93DF93EC018D81823009F079
:101EA0005BC0CE010E94D50A11E0811101C010E093
:101EB0008E81823099F461E089E395E00E94940A72
:101EC0000E94881261E08BE795E00E94C61660E0F0
:101ED00089E395E00E94940A0E9488128E818230E4
:101EE00099F461E088E195E00E94940A0E948812CA
:101EF00061E08BE795E00E94A51660E088E195E03F
:101F00000E94940A0E9488128E81853089F4612F84
:101F10008BE795E00E94BC0D612F82EA91E00E9460
:101F20008722612F86ED94E00E94940A0E94881215
:101F30008E81863009F05CC0612F8BE795E00E94AE
:101F4000E00D612F83EA91E00E948722612F85EBEB
:101F500094E00E94940A47C0833011F5CE010796A1
:101F60000E94871CEC01682F8BE795E00E94EF0D23
:101F70006C2F81EA91E00E9487222091FB042F714F
:101F800020642093FB042091FA04277020612093A1
:101F9000FA04C093FE04D093FF0487EF94E023C0BB
:101FA000883131F5CE0107960E94871CEC01BC01F7
:101FB0008BE795E00E94FB0D6C2F8EE991E00E946B
:101FC000872220915E052F71206420935E05209169
:101FD0005D052770206120935D05C0936105D09356
:101FE00062058AE595E0DF91CF911F910C948812EC
:101FF000DF91CF911F9108951F920F920FB60F920C
:1020000011242F933F934F935F936F937F938F93FD
:102010009F93AF93BF93EF93FF938091B900887F15
:10202000803609F49CC068F5883209F45BC090F4EE
:10203000803109F454C038F4882309F4F6C088309C
:1020400009F44DC0F6C0883109F44CC0803209F45F
:102050005DC0EFC0803409F468C048F4803309F4EF
:1020600055C0883309F0E5C08093AD03D8C08035F2
:1020700009F44FC0883509F45DC0883409F0D9C02F
:10208000D6C0883909F4C7C0A8F4883709F467C0F6
:1020900038F4883609F463C0803709F460C0C9C0D9
:1020A000883809F4B8C0803909F45FC0803809F075
:1020B000C0C05BC0803B09F486C038F4803A09F4A4
:1020C00066C0883A09F47FC0B4C0803C09F4A7C058
:1020D000883C09F4A4C0883B09F48AC0AAC0809156
:1020E0008A0310C09091AC038091AB03981770F5F0
:1020F000E091AC0381E08E0F8093AC03F0E0E557F4
:10210000FC4F80818093BB0085EC86C08093AD033B
:102110008EC0E091AC0381E08E0F8093AC03809180
:10212000BB00F0E0E557FC4F80839091AC038091B9
:10213000AB036EC0E091AC0381E08E0F8093AC03E3
:102140008091BB00F0E0E557FC4F80838091AE03A7
:1021500081116DC081E08093890384EA61C083E0CE
:102160008093AF0310926603CFCF809166038032D5
:1021700008F051C0E091660381E08E0F8093660302
:102180008091BB00F0E0EA5BFC4F8083BDCF85EC23
:102190008093BC001092AF0380916603803230F4CC
:1021A000E0916603F0E0EA5BFC4F10826091660309
:1021B00070E0E0914403F091450386E493E00995D3
:1021C0001092660336C084E08093AF0310924303FD
:1021D00010924203E0914003F091410309958091F0
:1021E0004203811105C081E08093420310922003D5
:1021F000E091430381E08E0F80934303F0E0E05EC3
:10220000FC4F80818093BB009091430380914203F7
:10221000981708F479CF85E88093BC000AC085EC54
:102220008093BC001092AF0304C01092AD030E94D3
:102230001B0DFF91EF91BF91AF919F918F917F9176
:102240006F915F914F913F912F910F900FBE0F9023
:102250001F901895009769F0FC0101900020E9F7A4
:102260003197AF01481B590BBC018CE094E00C94F2
:10227000211780E090E00895E1EBF5E090910904EA
:10228000918382836683258347708481807E482B77
:102290004483CF010895ECE0F4E0A089B18982E0A5
:1022A0008C93A485B5851C92A685B78580E18C9317
:1022B000108EA489B58986E08C93A289B3898C910C
:1022C00080618C93A289B3898C9188608C93A28958
:1022D000B3898C9180688C930288F389E02D80818A
:1022E0008F7D8083089590E0FC01E25CFA4F249199
:1022F000FC01E65DFA4F8491882399F090E0880F05
:10230000991FFC01E05EFA4FA591B491FC01EA5ED1
:10231000FA4F859194918FB7F894EC91E22BEC935E
:102320008FBF08950F931F93CF93DF93EC018C81A0
:1023300082958695877091F44B8146954695469592
:1023400050E0BE01695F7F4F86ED93E00E94182345
:10235000EB81E695E695E695F0E077C0813031F4C3
:102360008F814AE066ED73E090E007C0823041F46F
:102370004AE066ED73E08F8198850E94CC1C68C0AE
:10238000833041F44AE066ED73E08F8198850E94C6
:10239000251D5EC0843051F46F81788589859A85CA
:1023A0002AE046ED53E00E94D71C52C0853051F41C
:1023B0006F81788589859A852AE046ED53E00E94F1
:1023C000031D46C0873071F42B85293008F028E0C2
:1023D0006F81788589859A8506ED13E042E00E9439
:1023E000671C36C08630A1F520E0EB81E695E695C6
:1023F000E6952E1738F5E22FF0E0AF01440F551F98
:10240000DA01AA52BC4FEC0FFD1F8781082E000C89
:10241000990B34E0959587953A95E1F78F708A305E
:1024200010F4805D01C0895C8C93DA01A952BC4F25
:1024300087818F708A3010F4805D01C0895C8C9335
:102440002F5FD3CFF0E0EE0FFF1FEA52FC4F108258
:1024500086ED93E0DF91CF911F910F9108950C9439
:102460002A118F929F92AF92BF920F931F93CF9397
:10247000DF93CDB7DEB7A1970FB6F894DEBF0FBEDE
:10248000CDBF19A2423008F44AE08E010F5D1F4F04
:10249000842E912CA12CB12CA50194010E94E42240
:1024A000E62FB901CA0101501109EA3014F4E05DC8
:1024B00001C0E95CD801EC93232B242B252B61F779
:1024C000C8010E942A11A1960FB6F894DEBF0FBE74
:1024D000CDBFDF91CF911F910F91BF90AF909F9093
:1024E0008F900895CF93DF93262F8F3F19F0C8EE7A
:1024F000D1E002C0C0EED1E040E0682F80E00E9451
:102500003C11BE010E94A00ADF91CF910C94340CC3
:10251000FC018091090481839481907F9160948370
:102520008091D50380FF03C0CF010C94340C8FEF52
:1025300094E09F938F930E9413030F900F9080E07D
:102540000895382F2091D3039091D203213208F0BF
:1025500049C08091AF038111FCCF42E04093AF03AB
:102560003093AE033FEF3093AD031092AC03209352
:10257000AB03A2EBB3E04BE853E0FA013E2F341B70
:10258000321718F43D913193F9CF10928A032091BC
:102590008A03990F922B90938A039091890391302B
:1025A00061F41092890390918A039093BB009091FB
:1025B000BC0093FDF8CF95EC01C095EE9093BC0064
:1025C0009091AF039230E1F39091AD039F3F79F08A
:1025D0008091AD03803241F08091AD03803331F0C2
:1025E00084E005C081E003C082E001C083E0109276
:1025F000B1031092D3031092B003089581E00C94BC
:10260000A112682F89EA94E00C947D0D86EE91E08A
:102610000C942A11E0910C04F0910D040190F081CA
:10262000E02D682F8CE094E00994CF93DF930E9413
:102630002A11EC010E9406138C0F9D1FDF91CF9190
:102640000895CF92DF92EF92FF92CF93DF93D82F2E
:102650000E94E6196B017C0181E0D11180E080933A
:10266000D705C0E00E94E619AB01BC014C195D0919
:102670006E097F09403D57406105710580F4C11125
:102680000EC0A8950E9491039091D6059770933043
:1026900049F7C1E08091D7058D13E3CFE3CF8C2FAD
:1026A000DF91CF91FF90EF90DF90CF9008959091C0
:1026B000AF039111FCCF91E09093AF034093AE0331
:1026C0002FEF2093AD031092AC03260F2093AB03A2
:1026D00090938A0390918A03880F892B80938A03B1
:1026E00080918903813061F41092890380918A037B
:1026F0008093BB008091BC0083FDF8CF85EC01C0C6
:1027000085EE8093BC008091AF038130E1F380912E
:10271000AC03861710F46091AC03ABE8B3E029E694
:1027200033E0F9018E2F821B861718F48D91819367
:10273000F9CF862F0895613208F060E241E00E94EF
:10274000571310926803809367030895CF92DF9226
:10275000EF92FF92CF93DF936C01990FEE08FF0881
:10276000F7FE17C08DE20E940A13EC016627772757
:10277000CB016C197D098E099F094AE00E94311234
:102780008C0F9D1FDF91CF91FF90EF90DF90CF9046
:1027900008954AE0C701B601DF91CF91FF90EF9015
:1027A000DF90CF900C94311290E0FC01E551FB4F8B
:1027B0003491FC01E25CFA4F2491FC01E65DFA4F92
:1027C000E491EE2309F43BC0332339F1333091F027
:1027D00038F43130A9F0323001F584B58F7D12C064
:1027E000373091F03830A1F03430B9F48091800066
:1027F0008F7D03C0809180008F77809380000DC013
:1028000084B58F7784BD09C08091B0008F7703C0F5
:102810008091B0008F7D8093B000F0E0EE0FFF1F3D
:10282000EA5EFA4FA591B4918FB7F894EC916111DB
:1028300003C020952E2301C02E2B2C938FBF08950B
:102840008F929F92AF92BF92CF92DF92EF92FF92C0
:102850006B017C010E94C1194B015C01C114D104C0
:10286000E104F104F1F00E94C119DC01CB018819E7
:102870009909AA09BB09883E9340A105B10570F3E7
:1028800021E0C21AD108E108F10888EE880E83E041
:10289000981EA11CB11CC114D104E104F10419F764
:1028A000DDCFFF90EF90DF90CF90BF90AF909F90E3
:1028B0008F9008951F93CF93DF9389EA94E00E944D
:1028C000FB0C182F89EA94E00E94FB0CD12F20E02A
:1028D000C22F9E01280F311DC901DF91CF911F9199
:1028E00008951F93CF93DF93FC0123893489232B11
:1028F00009F47BC0EC0162E070E080E190E00E94AE
:102900009B13CE010E945A149BA78AA70E94FE1215
:102910008AA59BA593FF0AC08B81882339F08EE39B
:102920000E940A1389EE91E00E9415138AA59BA5C7
:1029300097FF5BC081E08093B00381E18093D20375
:102940001092B1031092D3036CE089EA94E00E94E4
:102950007D0D80E00E94A11241E068E081E10E94CB
:1029600057131092680380936703CE010E945A1494
:102970002EA53FA58217930721F09FA78EA711E0F0
:1029800001C010E0CE010E945A1428A939A982176B
:10299000930719F099AB88AB11E0CE010E945A144D
:1029A0002AA93BA98217930719F09BAB8AAB11E0C8
:1029B000CE010E945A142CA93DA98217930719F041
:1029C0009DAB8CAB11E00E94FE12112371F02CA97B
:1029D0003DA94AA95BA968A979A9EB89FC898EA5BB
:1029E0009FA5DF91CF911F910994DF91CF911F9106
:1029F0000895EF92FF920F931F93CF93DF938C0173
:102A00006CE070E080E190E00E949B13E801AA96E0
:102A1000780186E3E80EF11CC8010E945A148993DC
:102A20009993CE15DF05C1F7DF91CF911F910F91DB
:102A3000FF90EF900C94FE12CF92DF92EF92FF92F4
:102A40000F931F93CF93DF93CDB7DEB72C970FB6BD
:102A5000F894DEBF0FBECDBF8C010E94F914D801DF
:102A6000ED91FC9106A8F7A9E02D4CE0BE016F5F47
:102A70007F4FC801099582E192E00E942F12CE019A
:102A800001960E942F12F801E6A4F7A48DE192E0CE
:102A90000E942F12B701C8010E94E21AD8019A962B
:102AA0008D919C919B9792FD03C080E092E002C0C3
:102AB00088EF91E00E942F12F80182A593A597FD5F
:102AC00003C08DE092E002C088E092E00E942F12E5
:102AD000D8019D968C91E82EE694E694F12C82E242
:102AE00092E00E942F12BAE0EB16F1042CF460E29F
:102AF0008CE094E00E94B417C7010E94A61380E204
:102B00000E940A13C12CD12CEFE0EE1AF108CE146A
:102B1000DF044CF46AE28CE094E00E94B417FFEF0B
:102B2000CF1ADF0AF4CF0E94061388E292E00E94D7
:102B30001513780186E1E80EF11C6801A6E3CA0EC0
:102B4000D11CF701619171917F01C8010E94E21AC5
:102B5000EC14FD04B1F70E94061381E08093B003EA
:102B600081E18093D2031092B1031092D30360E00D
:102B700089EA94E00E947D0D80E00E94A11241E06C
:102B800060E281E10E94571310926803809367030B
:102B900080E1E82EF12CC8010E945A14BC01C80142
:102BA0000E94E21AF1E0EF1AF108A9F70E94FE1262
:102BB0000E940613D801ED91FC910288F389E02D63
:102BC000C8010995882321F085E792E00E942F1221
:102BD000D801ED91FC9102A4F3A5E02DC80109955F
:102BE000882321F080E892E00E942F12D801ED9115
:102BF000FC910680F781E02DC8010995182F86E821
:102C000092E00E942F12812F90E00E94A61380E292
:102C10000E940A130E9406132C960FB6F894DEBF8A
:102C20000FBECDBFDF91CF911F910F91FF90EF901D
:102C3000DF90CF9008950F931F93CF93DF938C0174
:102C4000EB010E94B719C8010E94F91421E0288302
:102C5000F80182A593A592FD2E8397FF02C081E023
:102C60008B83F80185A586958695898384A595A58E
:102C700090FF02C081E08C83F801828D938D95FFD7
:102C800002C081E08D83DF91CF911F910F91089554
:102C9000FF920F931F93CF93DF938C01F62EFC01CD
:102CA0008381C62FD0E0882351F18EE30E940A135E
:102CB0008EE892E00E942F128DE992E00E942F127E
:102CC0008F2D90E0A0E0B0E040E1BC01CD010E947A
:102CD000311281EA92E00E942F12FE013B96EE0F24
:102CE000FF1FE00FF11F6081718180E090E040E103
:102CF0000E94311289E20E940A130E94061381E0A9
:102D00008093B00381E18093D2031092B1031092BB
:102D1000D3036F2D89EA94E00E947D0D2B96CC0F92
:102D2000DD1FC00FD11F0990D881C02D8D2F90E0DD
:102D30000E940113CE0199270E940113DF91CF91C8
:102D40001F910F91FF900C94FE121F93CF93DF936E
:102D5000EC01162F8A8D9B8D9D7F91609B8F8A8FB2
:102D600062E0CE010E94481611110CC08A8D9B8D25
:102D70009E7F9B8F8A8F62E0CE01DF91CF911F9162
:102D80000C944816DF91CF911F9108951F93CF9314
:102D9000DF93EC01162F8A8D9B8D93609B8F8A8F1A
:102DA00062E0CE010E94481611110CC08A8D9B8DE5
:102DB0009E7F9B8F8A8F62E0CE01DF91CF911F9122
:102DC0000C944816DF91CF911F910895EF92FF92D6
:102DD0000F931F93CF93DF93EC018B81882359F0DE
:102DE0008EE30E940A1386EA92E00E942F128BEC77
:102DF00091E00E94151381E08093B00380E18093FD
:102E0000D2031092B1031092D3038E01065E1F4FBE
:102E1000A496F801E190F1908F018F2D90E00E942F
:102E20000113C70199270E9401130C171D0789F789
:102E3000DF91CF911F910F91FF90EF900C94FE12B4
:102E40000895CF92DF92EF92FF920F931F93CF934B
:102E5000DF936C017A018B01C0E0D0E0CE15DF0575
:102E600089F0D8016D918D01D601ED91FC91019011
:102E7000F081E02DC6010995892B11F47E0102C075
:102E80002196ECCFC701DF91CF911F910F91FF9059
:102E9000EF90DF90CF900895FC01538D448D252F46
:102EA00030E0842F90E0821B930B541710F0CF96E4
:102EB000089501970895FC01918D828D981761F016
:102EC000828DDF01A80FB11D5D968C91928D9F5F61
:102ED0009F73928F90E008958FEF9FEF0895FC010C
:102EE000918D828D981731F0828DE80FF11D858DBF
:102EF00090E008958FEF9FEF0895FC01918D228D52
:102F0000892F90E0805C9F4F821B91098F739927D6
:102F100008958CE094E00E947D1721E0892B09F44C
:102F200020E0822F0895FC01848DDF01A80FB11DE0
:102F3000A35ABF4F2C91848D90E001968F739927EF
:102F4000848FA689B7892C93A089B1898C918064DC
:102F50008C93938D848D981306C00288F389E02D9D
:102F600080818F7D80830895EF92FF920F931F934E
:102F7000CF93DF93EC0181E0888F9B8D8C8D98132C
:102F800005C0E889F989808185FD24C0F62E0B8D66
:102F900010E00F5F1F4F0F731127E02E8C8DE8128A
:102FA0000CC00FB607FCFACFE889F989808185FF4C
:102FB000F5CFCE010E949317F1CF8B8DFE01E80F64
:102FC000F11DE35AFF4FF0820B8FEA89FB89808164
:102FD000806207C0EE89FF896083E889F989808172
:102FE0008064808381E090E0DF91CF911F910F9109
:102FF000FF90EF900895CF93DF93EC01888D8823A5
:10300000C9F0EA89FB89808185FD05C0A889B98955
:103010008C9186FD0FC00FB607FCF5CF808185FF30
:10302000F2CFA889B9898C9185FFEDCFCE010E949E
:103030009317E7CFDF91CF91089580E090E0892B3F
:1030400029F00E94891781110C94000008950895B9
:10305000FC0163830895FC01748B638B0895DC018C
:103060005396ED91FC915497309749F020E030E071
:1030700040E050E060E070E080E090E00994089566
:103080000895FC01818992890895FC0187859089C2
:103090000895FC01858596850895FC0183859485B6
:1030A0000895FC01818592850895089508950F93F0
:1030B0001F93CF93DF93EC018A01E881F981028CA1
:1030C000F38DE02D0995E881F981068CF78DE02DCF
:1030D000B801CE01DF91CF911F910F910994FC01AE
:1030E000748763870895FC01728761876130710579
:1030F00019F48CEF91E205C06230710561F480EB48
:103100009DE19687858780E39AE2908B87878AE0A6
:1031100090E0928B818B0895FC0180850895FC01DD
:1031200060870895FC0187810895FC0167830895F5
:10313000FC0186810895FC0166830895FC01858168
:103140000895FC0165830895FC0184810895FC01C4
:1031500064830895089580E008950E940C23CF931E
:10316000DF9300D000D0CDB7DEB7DC01ED91FC914C
:1031700006A4F7A5E02DBE016F5F7F4F09958C81F6
:10318000811103C08BEB92E002C085EB92E00E94BC
:103190002F128A81811103C08BEB92E002C081EC77
:1031A00092E00E942F128B81811103C081ED92E089
:1031B00002C087EC92E00E942F120E9406130F902B
:1031C0000F900F900F90DF91CF910895CF93DF93E1
:1031D000CDB7DEB727970FB6F894DEBF0FBECDBFD1
:1031E000DC01ED91FC9104A4F5A5E02DBE016F5F1B
:1031F0007F4F09958C81811103C088E092E002C065
:103200008DE092E00E942F128D81811103C082EE29
:1032100092E002C08BED92E00E942F128F8181110B
:1032200003C081EF92E002C089EE92E00E942F126B
:1032300089EF92E00E942F126A8170E080E090E0B6
:103240004AE00E94311282E093E00E942F126B81CB
:1032500070E080E090E04AE00E9431120E94061384
:1032600027960FB6F894DEBF0FBECDBFDF91CF918A
:103270000895CF92DF92EF92FF920F931F93CF9317
:10328000DF931F92CDB7DEB78C016B01DC01ED91AE
:10329000FC91048CF58DE02D498309957C01D801C2
:1032A000ED91FC9100A0F1A1E02DC80109954981A3
:1032B000C114D104E1F14B30D0F1F6011082F1E0FC
:1032C000EF1AF10822E0E216F10488F545E0EAE0A1
:1032D000F0E010E24150242F30E0443011F000972C
:1032E00051F02C0D3D1DBF010E94D022805DD901FF
:1032F0008C93CB0104C0D601A20FB31F1C934111C4
:10330000E9CFF60184818583838184838EE2838380
:103310006AE073E0C60106960F90DF91CF911F918E
:103320000F91FF90EF90DF90CF900C9411230F90AE
:10333000DF91CF911F910F91FF90EF90DF90CF9091
:103340000895DC01FB01108211821282138214960F
:103350008C911497808317968C9117978183189678
:103360008C911897828315968C918383089527E01A
:10337000FB0111922A95E9F7FC018681FB01858307
:1033800008953FB7F8948091F8059091F905A091C0
:10339000FA05B091FB0526B5A89B05C02F3F19F093
:1033A0000196A11DB11D3FBFBA2FA92F982F8827C5
:1033B000820F911DA11DB11DBC01CD0142E0660F20
:1033C000771F881F991F4A95D1F708952FB7F89452
:1033D0006091F4057091F5058091F6059091F705DF
:1033E0002FBF08951F920F920FB60F9211242F93A3
:1033F0003F938F939F93AF93BF938091F4059091E8
:10340000F505A091F605B091F7053091F30523E09D
:10341000230F2D3720F40196A11DB11D05C026E80C
:10342000230F0296A11DB11D2093F3058093F4058F
:103430009093F505A093F605B093F7058091F805F4
:103440009091F905A091FA05B091FB050196A11D97
:10345000B11D8093F8059093F905A093FA05B093F8
:10346000FB05BF91AF919F918F913F912F910F904D
:103470000FBE0F901F9018951F920F920FB60F92CC
:1034800011242F933F934F935F936F937F938F9369
:103490009F93AF93BF93EF93FF93E0912301F0913C
:1034A00024010995FF91EF91BF91AF919F918F9169
:1034B0007F916F915F914F913F912F910F900FBE30
:1034C0000F901F9018951F920F920FB60F92112414
:1034D0002F933F934F935F936F937F938F939F931C
:1034E000AF93BF93EF93FF93E0912101F0912201FD
:1034F0000995FF91EF91BF91AF919F918F917F912E
:103500006F915F914F913F912F910F900FBE0F9050
:103510001F9018951F920F920FB60F9211242F93A0
:103520003F934F935F936F937F938F939F93AF934B
:10353000BF93EF93FF938CE094E00E949317FF9169
:10354000EF91BF91AF919F918F917F916F915F911B
:103550004F913F912F910F900FBE0F901F90189594
:103560001F920F920FB60F9211242F938F939F9358
:10357000EF93FF93E0911C04F0911D048081E09192
:103580002204F091230482FD12C0908180912504D1
:103590008F5F8F7320912604821751F0E0912504EC
:1035A000F0E0E45FFB4F958F8093250401C080819C
:1035B000FF91EF919F918F912F910F900FBE0F90E0
:1035C0001F901895CF93DF93EB016031710520F4C4
:1035D00080E30E940A1304C06F3F710509F020F4D4
:1035E00080E30E940A1303C06115704118F480E360
:1035F0000E940A13BE0180E090E040E10E94311277
:1036000080E2DF91CF910C940A13789484B58260A4
:1036100084BD84B5816084BD85B5826085BD85B576
:10362000816085BD80916E00816080936E001092F4
:10363000810080918100826080938100809181006F
:103640008160809381008091800081608093800000
:103650008091B10084608093B1008091B00081605E
:103660008093B00080917A00846080937A0080918A
:103670007A00826080937A0080917A0081608093E2
:103680007A0080917A00806880937A001092C1005D
:10369000A89580E090E0892B11F00E9400000E9424
:1036A0004B1183EC94E09F938F930E9413038091BE
:1036B000D5038D7F8093D5030F900F9080E090E02D
:1036C000892B51F086EB94E09F938F930E94130314
:1036D0000E9400000F900F9041E050E063E071E025
:1036E00084ED93E00E945F226FEF81E090E00E9402
:1036F000872280911C038F7880931C031092120301
:10370000109211038DE191E00E94E70285EB9CE0AD
:1037100090931F0380931E031F921F921F921F926C
:1037200081E894E09F938F930E9413030E94E6190F
:103730000F900F900F900F900F900F900E94E6192E
:103740000E949103A89580911B0382FFF7CF89EA1D
:1037500094E09F938F930E9413030E94230A0F907B
:103760000F9080911B0382FB882780F91F928F9313
:1037700081E994E09F938F930E941303A8950F9083
:103780000F900F900F90A8950E9491030E941D1812
:10379000FACFCF93DF93FC01108211821282148240
:1037A00015821682DC0117968AE1ED0119928A953D
:1037B000E9F782E08383DF91CF910895CF93DF9380
:1037C000ECE0F4E01382128288EE93E0A0E0B0E037
:1037D00084839583A683B78329E231E031832083F4
:1037E00025EC30E03587248724EC30E037872687C6
:1037F00020EC30E0318B208B21EC30E0338B228BBE
:1038000022EC30E0358B248B26EC30E0378B268B96
:10381000118E128E138E148EE9EAF4E01382128256
:1038200084839583A683B7838BE391E09183808320
:1038300082ED95E00E94C91B81EB95E00E94C91BB7
:10384000EBE7F5E085E1DF011D928A95E9F78DE46C
:1038500091E0918380838FE0858B8AE595E00E94DB
:10386000C91BEAE5F5E081E0868388E1858389E389
:1038700095E00E94C91BE9E3F5E0C2E0C683C58379
:1038800088E195E00E94C91BE8E1F5E0D3E0D6832A
:10389000C58387EF94E00E94C91BE7EFF4E084E062
:1038A0008683D58386ED94E00E94C91BE6EDF4E0A3
:1038B00085E08683C58385EB94E00E94C91BE5EB18
:1038C000F4E086E08683C583DF91CF910895EF927F
:1038D0000F931F93CF93DF93E80147FD02C034E0BD
:1038E00001C034E1E42F440FFF0BF7FF03C0F19553
:1038F000E195F109E32E022F2E2FAE010E943D1F0C
:10390000CE01DF91CF911F910F91EF900895FC01AF
:1039100088279927E89421912032E9F3293010F083
:103920002E30C8F32B3241F02D3239F4689404C0A4
:103930000E94FB1C820F911D219120532A30C0F35D
:103940001EF4909581959F4F08951F93FC01992730
:103950008827BC01E89411911032E9F3193010F076
:103960001E30C8F31B3251F01D3249F4689406C072
:103970000E94E61C610F711D811D911D1191105354
:103980001A30B0F33EF490958095709561957F4F15
:103990008F4F9F4F1F910895BB274A3031F49923D1
:1039A00022F4BDE2909581959F4F0C94261DBB2774
:1039B0002A3051F4992342F4BDE290958095709598
:1039C00061957F4F8F4F9F4F0C94041D592F482FA7
:1039D000372F262F660F771F881F991F660F771FB7
:1039E000881F991F620F731F841F951F660F771F13
:1039F000881F991F08957AE0979F902D879F802DAB
:103A0000910D11240895BB27FA01A62F62177105A5
:103A100081059105330B30FB66F0AA27660F771FEF
:103A2000881F991FAA1FA21710F0A21B6395385078
:103A3000A9F7A05DAA3308F0A95DA19336F7B111EB
:103A4000B1931082CA010C94B921BB27FB01552701
:103A5000AA27880F991FAA1FA41710F0A41B8395EB
:103A60005051B9F7A05DAA3308F0A95DA193009762
:103A700079F7B111B1931192CB010C94B921AEE059
:103A8000B0E0E5E4FDE10C94A7228C01CA014EE010
:103A90004C831A83098377FF02C060E070E8FB0162
:103AA0003197FE83ED83A901BC01CE0101960E94EE
:103AB0006B1D4D815E8157FD0AC02F8138854217ED
:103AC00053070CF49A01F801E20FF31F10822E96AF
:103AD000E4E00C94C322ACE0B0E0E1E7FDE10C943B
:103AE00099227C016B018A01FC0117821682838175
:103AF00081FFBDC1CE0101964C01F7019381F60112
:103B000093FD859193FF81916F01882309F4ABC1E7
:103B1000853239F493FD859193FF81916F01853250
:103B200029F4B70190E00E94C921E7CF512C312C34
:103B300020E02032A0F48B3269F030F4803259F06A
:103B4000833269F420612CC08D3239F0803339F42E
:103B5000216026C02260246023C0286021C027FD88
:103B600027C030ED380F3A3078F426FF06C0FAE06F
:103B70005F9E300D1124532E13C08AE0389E300D05
:103B80001124332E20620CC08E3221F426FD6BC12D
:103B9000206406C08C3611F4206802C0883641F4D7
:103BA000F60193FD859193FF81916F018111C1CF42
:103BB000982F9F7D9554933028F40C5F1F4FFFE39F
:103BC000F9830DC0833631F0833771F0833509F006
:103BD0005BC022C0F801808189830E5F1F4F44249F
:103BE0004394512C540115C03801F2E06F0E711C42
:103BF000F801A080B18026FF03C0652D70E002C0EF
:103C00006FEF7FEFC5012C870E94AE212C0183014D
:103C10002C852F77222E17C03801F2E06F0E711C11
:103C2000F801A080B18026FF03C0652D70E002C0BE
:103C30006FEF7FEFC5012C870E94A3212C012C85FB
:103C40002068222E830123FC1BC0832D90E04816A0
:103C50005906B0F4B70180E290E00E94C9213A947D
:103C6000F4CFF50127FC859127FE81915F01B70113
:103C700090E00E94C92131103A94F1E04F1A5108A6
:103C80004114510471F7E5C0843611F0893639F5D5
:103C9000F80127FF07C060817181828193810C5FE9
:103CA0001F4F08C060817181072E000C880B990B93
:103CB0000E5F1F4F2F76722E97FF09C0909580954B
:103CC000709561957F4F8F4F9F4F2068722E2AE02D
:103CD00030E0A4010E940122A82EA81844C0853714
:103CE00029F42F7EB22E2AE030E025C0F22FF97F92
:103CF000BF2E8F36C1F018F4883579F0B4C0803704
:103D000019F0883721F0AFC02F2F2061B22EB4FEFA
:103D10000DC08B2D8460B82E09C024FF0AC09F2FD0
:103D20009660B92E06C028E030E005C020E130E002
:103D300002C020E132E0F801B7FE07C06081718166
:103D4000828193810C5F1F4F06C06081718180E08A
:103D500090E00E5F1F4FA4010E940122A82EA81818
:103D6000FB2DFF777F2E76FE0BC0372D3E7FA514EF
:103D700050F474FE0AC072FC08C0372D3E7E05C0A8
:103D8000BA2C372D03C0BA2C01C0B52C34FF0DC09E
:103D9000FE01EA0DF11D8081803311F4397E09C0E6
:103DA00032FF06C0B394B39404C0832F867809F021
:103DB000B39433FD13C030FF06C05A2CB31418F46B
:103DC000530C5B18B32CB31468F4B70180E290E095
:103DD0003C870E94C921B3943C85F5CFB31410F4FD
:103DE0003B1801C0312C34FF12C0B70180E390E0D2
:103DF0003C870E94C9213C8532FF17C031FD03C0BA
:103E000088E790E002C088E590E0B7010CC0832FFE
:103E1000867859F031FF02C08BE201C080E237FDA5
:103E20008DE2B70190E00E94C921A51438F4B701D2
:103E300080E390E00E94C9215A94F7CFAA94F4013C
:103E4000EA0DF11D8081B70190E00E94C921A11007
:103E5000F5CF332009F451CEB70180E290E00E9403
:103E6000C9213A94F6CFF7018681978102C08FEF7E
:103E70009FEF2C96E2E10C94B5224F925F926F92E5
:103E80007F929F92AF92BF92CF92DF92EF92FF927A
:103E90000F931F93CF93DF93CDB7DEB729970FB65C
:103EA000F894DEBF0FBECDBF6A01122FB02E2BE3F8
:103EB000201720F0FF24F394F00E02C0BCE3FB2E89
:103EC0000F2D27E0AE014F5F5F4F0E94CB20AC016A
:103ED0008981982F9970913031F0E1FC06C0E0FEA5
:103EE00006C090E205C09DE203C09BE201C090E0E5
:103EF000EE2DE07183FF3CC0911102C083E001C050
:103F000084E0811718F4212F281B01C020E0E11163
:103F10000BC0F601822F30E2882319F031938150D3
:103F2000FBCFC20ED11C20E0992329F0D6019C932F
:103F3000F60131966F01C6010396E2FE0AC03EE427
:103F4000D6013C9341E411964C93119712963C9301
:103F500006C03EE6F601308341E641833283FC0130
:103F6000322F40E2332309F442C041933150FACF5B
:103F700082FF44C0911102C083E001C084E0811738
:103F800018F4212F281B01C020E0E1110BC0F6011D
:103F9000822F30E2882319F031938150FBCFC20E7B
:103FA000D11C20E0992329F0D6019C93F60131968B
:103FB0006F01C6010396E2FE0BC039E4D6013C93C3
:103FC0003EE411963C93119736E412963C9307C059
:103FD00039E6F60130833EE6318336E63283FC0172
:103FE000322F40E2332319F041933150FBCFFC01D3
:103FF000E20FF11D10828EEF9FEFB7C0F1E091113B
:1040000001C0F0E06F2F70E01416150624F49A0139
:104010002F5F3F4F02C021E030E0260F371FBB204B
:1040200029F06B2D70E06F5F7F4F02C060E070E0A1
:10403000260F371F612F70E0261737071CF4121B5D
:10404000212F01C020E03E2D387159F4D601322FC6
:1040500060E2332319F06D933150FBCFC20ED11CB7
:1040600020E0FF2331F0D6019C93B6016F5F7F4FB4
:104070006B01E1110BC0F601922F30E3992319F087
:1040800031939150FBCFC20ED11C20E09F2D940F95
:104090003A81782F7071A72E84FF03C0313309F461
:1040A0009150191624F4993018F098E001C091E06D
:1040B000E42F852F57FF02C0E0E080E06E2F782FBD
:1040C000E0E0F0E0AEE29A2E3A01691A71082A01A6
:1040D000461A570A0B2D10E01195019511096F3FF3
:1040E0008FEF780729F4D6019C92C60101966C01E6
:1040F0004617570784F0661677066CF47F01E40CC8
:10410000F51CA1E0B0E0AC0FBD1FEA0EFB1ED7010D
:104110001196BC9002C090E3B92E6150710931969E
:10412000C60101967C016017710724F0D601BC928C
:104130006C01D5CF6417750741F4363320F435335D
:1041400021F4A11002C081E3B82EF601B082F7017C
:10415000822F90E2882319F091938150FBCFF701D1
:10416000E20FF11D108280E090E029960FB6F894DE
:10417000DEBF0FBECDBFDF91CF911F910F91FF909A
:10418000EF90DF90CF90BF90AF909F907F906F9017
:104190005F904F900895283008F027E03327DA0128
:1041A000990F311D87FD916000966105710539F405
:1041B00032602E5F3D9330E32A95E1F708959F3FEB
:1041C00030F080387105610509F03C5F3C5F3D933C
:1041D000913008F08068911DDF93CF931F930F9368
:1041E000FF92EF92192F987F9695E92F96959695C5
:1041F000E90FFF27EE53FF4F99273327EE24FF24C3
:10420000A701E70105900894079428F4360FE71EEC
:10421000F81E491F511D660F771F881F991F0694AE
:10422000A1F70590079428F4E70EF81E491F561FC2
:10423000C11D770F881F991F661F0694A1F705906F
:10424000079428F4F80E491F561FC71FD11D880F69
:10425000991F661F771F0694A1F70590079420F415
:10426000490F561FC71FD81F990F661F771F881F3A
:104270000694A9F784911095177041F0D695C795CB
:1042800057954795F794E7941A95C1F7E8E6F0E05B
:1042900068941590159135916591959105907FE2FF
:1042A0007395E118F10A430B560BC90BD009C0F7FF
:1042B000E10CF11E431F561FC91FD01D7EF4703341
:1042C00011F48A95E6CFE894015030F0080F0AF413
:1042D0000027021708F4202F2395022F7A3328F0A5
:1042E00079E37D932A95E9F710C07D932A9589F6A5
:1042F000069497956795379517951794E118F10AE5
:10430000430B560BC90BD00998F023957E917395FA
:104310007A3308F070E37C932013B8F77E917061D4
:104320007D9330F0839571E37D9370E32A95E1F7F7
:104330001124EF90FF900F911F91CF91DF9199275A
:1043400087FD90950895FC01059061507040011023
:10435000D8F7809590958E0F9F1F0895FC016150AE
:10436000704001900110D8F7809590958E0F9F1F97
:104370000895DC01FC01672F71917723E1F73297F3
:1043800004C07C916D9370836291AE17BF07C8F330
:1043900008950F931F93CF93DF93FB01238121FD9A
:1043A00003C08FEF9FEF28C022FF16C046815781C0
:1043B000248135814217530744F4A081B1819D01C6
:1043C0002F5F3F4F318320838C93268137812F5F6E
:1043D0003F4F3783268310C0EB01092F182F00842D
:1043E000F185E02D0995892BE1F68E819F8101965B
:1043F0009F838E83812F902FDF91CF911F910F91FB
:104400000895FA01AA27283051F1203181F1E8946A
:104410006F936E7F6E5F7F4F8F4F9F4FAF4FB1E0B7
:104420003ED0B4E03CD0670F781F891F9A1FA11DB2
:10443000680F791F8A1F911DA11D6A0F711D811DB3
:10444000911DA11D20D009F468943F912AE0269F78
:1044500011243019305D3193DEF6CF010895462FD7
:104460004770405D4193B3E00FD0C9F7F6CF462FB8
:104470004F70405D4A3318F0495D31FD4052419321
:1044800002D0A9F7EACFB4E0A695979587957795DE
:104490006795BA95C9F700976105710508959B0165
:1044A000AC010A2E06945795479537952795BA95EE
:1044B000C9F7620F731F841F951FA01D0895DC01AB
:1044C000CB01FC01F999FECF06C0F2BDE1BDF89A1F
:1044D000319600B40D9241505040B8F70895F999C3
:1044E000FECF92BD81BDF89A992780B50895DC0171
:1044F000A40FB51F4150504048F0CB01840F951FC9
:104500002E910E94882241505040D0F70895262FC6
:10451000F999FECF92BD81BDF89A019700B40216B9
:1045200039F01FBA20BD0FB6F894FA9AF99A0FBE67
:1045300008952F923F924F925F926F927F928F9247
:104540009F92AF92BF92CF92DF92EF92FF920F9322
:104550001F93CF93DF93CDB7DEB7CA1BDB0B0FB62C
:10456000F894DEBF0FBECDBF09942A8839884888E9
:104570005F846E847D848C849B84AA84B984C8847F
:10458000DF80EE80FD800C811B81AA81B981CE0F76
:10459000D11D0FB6F894DEBF0FBECDBFED0108955B
:1045A000AA1BBB1B51E107C0AA1FBB1FA617B70759
:1045B00010F0A61BB70B881F991F5A95A9F7809575
:1045C0009095BC01CD010895A1E21A2EAA1BBB1B38
:1045D000FD010DC0AA1FBB1FEE1FFF1FA217B307CF
:1045E000E407F50720F0A21BB30BE40BF50B661FE5
:1045F000771F881F991F1A9469F7609570958095A9
:1046000090959B01AC01BD01CF010895EE0FFF1FF6
:104610000590F491E02D099481E090E0F8940C94D9
:104620002723FB01DC0101900D920020E1F70895A2
:10463000FB01DC014150504048F001900D920020F8
:10464000C9F701C01D9241505040E0F70895F89419
:02465000FFCF9A
:10465200FFFFFF00FCE1A8A85C0734078E0854089E
:104662003108D607AA0798070109B708FFEF0927FB
:10467200092017201700000000B41721174C17FB60
:10468200177D175B176F17000000007D0D4D0D1889
:104692000DEB0C0F0DFB0CEC0C00000000C60EA67F
:1046A2000EEF0DA418BC0D9218AD0D8C18E00D9EE6
:1046B20018491845184118870E5118FB0D650E57F9
:1046C20018C616A516CB0D98181B16A11971142F12
:1046D200182B1839192818E618AF181C154F4B005B
:1046E200526164696F2E2E2E004E41434B00210011
:1046F2004D7953656E736F72735F47726F76655F44
:10470200464D5F526164696F0073657446726571EC
:1047120075656E6379007465726D00282900696E93
:10472200697400726164696F20666F756E642E0031
:10473200322E312E31000D0A00424C4F434B5F4561
:1047420020666F756E642E002053746572656F006B
:10475200204D6F6E6F202000202D2D2D0020524401
:1047620053004672657175656E63793D002050494C
:104772003D00205369673D00302020202031202059
:1047820020203220202020332020202034202020EE
:1047920020352020202036202020203720202020D5
:1047A2003820202020392020202041202020204293
:1047B200202020204320202020442020202045208B
:1047C200202020460042617373426F6F7374200091
:1047D2004D6F6E6F2000566F6C756D653D002D5FDD
:1047E2007361766552656769737465720028307803
:1047F200002C203078002D736176655265676973ED
:104802007465727300204241535300202D2D2D2DCB
:1048120000204D5554450020534F46544D555445A4
:1048220000202D2D2D2D2D2D2D2D002054554E45A2
:104832004400202D2D2D2D2D002053544552454F3F
:104842000020204D4F4E4F20002020525353493A12
:1048520020002020534E523A2000204D487A00007A
:00000001FF
